:1000000000000120C9360000F1360000F336000080
:10001000F5360000F7360000F93600000000000059
:10002000000000000000000000000000FB3600009F
:10003000FD36000000000000FF3600000137000020
:1000400003370000E51000002527000003370000FB
:10005000012B0000033700000337000003370000C6
:10006000C11200000337000003370000033700000F
:100070000337000003370000033700000337000098
:1000800003370000413D0000033700000337000044
:100090000337000003370000033700000337000078
:1000A0000337000003370000033700000337000068
:1000B00003370000033700000000000000000000CC
:1000C0000337000003370000033700000337000048
:1000D000E90D0000033700000337000000000000B6
:1000E0000000000000000000000000000000000010
:1000F0000000000000000000000000000000000000
:1001000000000000000000000000000000000000EF
:1001100000000000000000000000000000000000DF
:1001200000000000000000000000000000000000CF
:1001300000000000000000000000000000000000BF
:1001400000000000000000000000000000000000AF
:10015000000000000000000000000000000000009F
:10016000000000000000000000000000000000008F
:10017000000000000000000000000000000000007F
:10018000000000000000000000000000000000006F
:10019000000000000000000000000000000000005F
:1001A000000000000000000000000000000000004F
:1001B000000000000000000000000000000000003F
:1001C000000000000000000000000000000000002F
:1001D000000000000000000000000000000000001F
:1001E000000000000000000000000000000000000F
:1001F00000000000000000000000000000000000FF
:1002000010B5054C237833B9044B13B10448AFF350
:1002100000800123237010BD300200200000000088
:10022000F484000008B5034B1BB103490348AFF346
:10023000008008BD0000000034020020F4840000AB
:10024000154B002B08BF134B9D46A3F5803A0021A8
:100250008B460F461348144A121A04F08BFF0F4BBB
:10026000002B00D098470E4B002B00D09847002061
:10027000002104000D000D48002802D00C48AFF307
:10028000008004F0EFFE2000290002F0F3F804F0F3
:10029000C3FE00BF000008000000012000000000B5
:1002A0000000000030020020F408002000000000E0
:1002B00000000000BFF34F8F0549064BCA6802F4E7
:1002C000E0621343CB60BFF34F8F00BFFDE700BF79
:1002D00000ED00E00400FA05024B034A1B78DBB294
:1002E00013707047380000203A000020024B034A88
:1002F0001B78DBB213707047390000203A000020F1
:100300000D4B0222C3F880204FF48072C3F8802086
:100310000A4B4FF48102C3F80825A3F5F033084ACD
:10032000D3F80C1511700022C3F8FC2F03F5E0433D
:1003300001221A61704700BF00E100E000F00140B7
:1003400004000020074B1A7B42F004021A735A7B08
:1003500002F08F026FF303025A73034B1B6803B161
:1003600018477047740200200C070020094B5A7B85
:1003700002F0700170291FBFC2F30211013161F355
:1003800006125A731A7B02F0FB026FF304121A73FF
:10039000FFF7B6BF74020020EFF3108372B6044A71
:1003A000507AC0B283F31088003018BF0120704724
:1003B0008C0200205C4B5D49F0B500220120202416
:1003C000C3F8FC0F4025C3F80022186181F80143EF
:1003D0000224C1F880410C6081F808534FF4807505
:1003E000C1F880510D604FF0FF31C3F80421C3F80C
:1003F0002821C3F81421C3F81821C3F81021C3F829
:100400000C21C3F80821C3F80021C3F81C21C3F84C
:1004100008134FF48161C3F80413454991F90010A2
:10042000C3F80C154C21C3F808154FF40071C3F83C
:100430001045C3F850164FF6FF71C3F83445C3F8A2
:100440003C153C49C3F838153B49097891FAA1F1AC
:1004500009BA61F0FF01C3F824154FF0FC0C9CFAB7
:10046000ACF4E12594FA84FE95FAA5F7A8213FBAE9
:1004700091FAA1F636BA91FAA1F424BAE4B23F0493
:1004800044EA0E6407F47F0736023C43B6B23443B5
:10049000C3F81C459CFAACFC9CFA8CFC95FAA5F5BB
:1004A0002DBA91FAA1F424BA91FAA1F109BAC9B20C
:1004B0002D0441EA0C6105F47F0524022943A4B20E
:1004C0002143C3F820156FF0FF01C3F828158121DF
:1004D000C3F830151949C3F814151949C3F818158C
:1004E0000921C3F8601503F5E04304215860186141
:1004F000C3F8101540F60801C3F80425C3F8082511
:10050000C3F80012D860C3F84021C3F84421C3F8EF
:100510004821C3F84C21C3F85021C3F854214FF4AB
:100520000032C3F80423F0BD0010004000E100E0F9
:1005300004000020211001008502002006001300A5
:100540002000040110B50E4CD4F8FC3F0BB9FFF7A6
:1005500031FF0C4A136823F0807323F0010343F04A
:100560008073136040F279120123C4F80433C4F895
:100570000022D4F850250AB9636010BD2361FCE75E
:100580000010004074170040024AD2F80034002BDB
:10059000FBD0704700E00140F8B5EFF3108272B66F
:1005A000EFF3108172B61D4C637ADBB281F31088D1
:1005B0001BB982F310881846F8BD237A657A217832
:1005C00067685B1B0B4493FBF1F501FB1533DBB252
:1005D00023255D437E1982F31088EEB17A5DB11C4C
:1005E00004F0A4FD96F922300D4A785D5B421BB2FF
:1005F0001380EFF3108172B6EFF3108272B6637A54
:10060000DBB282F3108813B981F31088D4E7637AE0
:10061000013BDBB26372F7E73046CDE78C02002086
:10062000560500204FF010235A69013209BF4FF0E0
:1006300080535869586900037047000038B58C181A
:1006400021F48051A1421BD20E480223D0F8045558
:10065000C0F80435A14206D2FFF796FFC0F808158E
:1006600001F58051F6E7FFF78FFF0023C0F804354E
:10067000FFF78AFFC0F80455BDE83840FFF784BF94
:1006800038BD00BF00E001400B68934210B514462E
:100690000FD008480123C0F80435FFF775FF0C6040
:1006A000FFF772FF0023C0F80435BDE81040FFF7E4
:1006B0006BBF10BD00E001400B685A1C10B515D08F
:1006C00001339BB240F2FD3293420FD840F2FE302C
:1006D000421E93420BD0C21A03EB620292B251F84F
:1006E0002240013414BF13461046F1E7002010BD2C
:1006F000F0B5BDF81440DFF858C020124FF48075F3
:100700008540260593420BD9013B9BB251F823004B
:10071000054205D000EA0C07B742F3D1C0B211E0A0
:10072000A30801339A4211D904F00304022C51F8B2
:10073000230008D0032C04D0012CEFD1C0F30720F4
:1007400000E0000EF0BDC0F30740FBE7FF20F9E733
:100750000000F0FF21F47F6121F00F010B680133ED
:1007600008D04A68530005D522F08042043102487F
:10077000FFF78ABF704700BF4C02002021F47F6161
:1007800021F00F010B68013308D04A68002A05DA0E
:1007900022F0004204310248FFF776BF704700BFE5
:1007A0004C02002008B50348FFF73CFFA0EB813066
:1007B00008BD00BF4C02002070B505460E4601245E
:1007C000A1B22846FFF7EEFF0368B34206D14368A3
:1007D0005A0003D4002B01DA083070BD0134092C13
:1007E000EED10124A1B22846FFF7DCFF03689E4248
:1007F00002D14368002BEFDB0134092CF2D14FF01A
:10080000FF30EAE770B521F47F6424F00F04D4E9E7
:1008100000350133164616D04FF480522146104859
:10082000FFF70CFF324621460D48FFF72DFF6368A6
:10083000013313D16A1C211D42F07F420848BDE8F4
:100840007040FFF721BF04F1080304F580521968D6
:100850000131E1D104339342F9D1E3E770BD00BF28
:100860004C02002070B505460124A6B23146284648
:10087000FFF798FF4368002B0ADB2846FFF792FF3B
:100880004FF0FF3201462846BDE87040FFF7BABF7F
:100890000134092CE9D170BD2DE9F0474FF0FF3646
:1008A000DFF874908246884601273446B9B2504634
:1008B000FFF778FF0368434505460DD14368002BD9
:1008C0000ADA00EA09035B685A0005D501464FF0D1
:1008D000FF325046FFF796FF6A68531C23F07F43B0
:1008E000B34207D2296829B1013111D0002AA4BF2F
:1008F0001E462C460137092FD8D1631C05D021464E
:1009000042465046FFF77EFF08342046BDE8F08798
:100910001E462C46EEE700BF00F0FFFF10B5094968
:100920000948FFF749FF431C044609D10549064819
:10093000FFF7B2FF0022044601460448FFF7A4FE79
:10094000204610BDB9FD10774E0200204C02002059
:100950002DE9F3471F4680460C469246FFF7DEFF1F
:10096000431C064607D12346FF22191B8F421FD97D
:1009700003F8012BF9E701464046FFF79DFE81464B
:10098000A0B135680135ADB22744AAEB040A04EBE7
:100990000A03BC429BB20BD000932A464B46314619
:1009A0004046FFF7A5FE04F8010BF0E70125EBE751
:1009B00002B0BDE8F08700002DE9F74F83461D48DF
:1009C00091468A469846FFF7C5FE1B491948FFF72E
:1009D00063FF421C064628D00025071D2C46042331
:1009E000AA0092B20DEB03015846FFF7B1FF019A3E
:1009F0000135531CADB204D039461048FFF744FE10
:100A00002C46B5F5407F07F10407E8D12246314670
:100A10000A480134FFF738FEA4B251460548FFF7F3
:100A2000ADFEA9F80040A8F80040304603B0BDE88C
:100A3000F08F00BF4E020020B9FD10774C0200205D
:100A40002DE9F04F85B01446814688461E46FFF7D3
:100A500065FF421C054651D007680137BFB2014609
:100A60004846ADF80C70FFF727FE8742ADF80E0040
:100A70003FBF00F1804000F1FF30234F55F8203098
:100A8000264434BF1F40002708F1FF381FFA86FBB9
:100A9000A34537D0BDF80EA0BDF80C2000945346F6
:100AA00029464846FFF724FE18F8016FB04222D0CD
:100AB00040F2FD339A4509D90DF10E0303AA4846C9
:100AC000FFF77AFF431C054618D0002701232212A6
:100AD00003FA02F2BDF80E100C4846EA045646EA44
:100AE00002223A4305EB8101FFF7CEFDBDF80E303F
:100AF0000133ADF80E300134A4B2C9E7002005B0CF
:100B0000BDE8F08F0120FAE700FF0F004C02002043
:100B100013B502AC012304F8012D0A462146FFF764
:100B20008FFF02B010BDF7B505460F46FFF7F6FE82
:100B3000421C044620D0B7F5406F1DD80146284618
:100B4000FFF7BAFD40F2FD36ADF80400301A8742D7
:100B500010DD23680133ADF806300DF1060201AB5C
:100B60002846FFF729FF431C04D001462846FFF71B
:100B7000A3FD301A03B0F0BD4FF0FF30FAE70000DC
:100B800038B505460C460548FFF76CFE2CB12146EA
:100B90002846BDE83840FFF7C6BF38BD4E020020EA
:100BA00093B28AB201460148FFF7D2BE4D0200203F
:100BB000064A0748137B03F0F7036FF30413002181
:100BC000137391600422FFF7EBBF00BF7402002093
:100BD0008802002093B28AB201460148FFF730BF75
:100BE0004D0200200A4681B20148FFF791BF00BFC5
:100BF0004D0200204FF080430122DA67244B002190
:100C00001970002840D0234BB0F5FA2F9A6028BF06
:100C100040F6FF714FF07D0233BFC3F80815C3F8EB
:100C20000815B0FBF2F2010338BFB1FBF2F2C3F8D2
:100C300040254FF48032C3F80423C3F84423002234
:100C4000C3F8402101221A60134BE02283F82423C9
:100C50001022C3F884215A604FF080420F49D2F825
:100C60000031003318BF01230B700123536002F5DC
:100C700000525360D360D36149F64043984205D98E
:100C800020210748FFF77CBF064BE4E7704700BF11
:100C9000980200200040024000E100E087020020AE
:100CA0004D02002000100140134B1B7863B14FF040
:100CB00080430022C3F8002101221A60D3F80021EA
:100CC000002AFBD001229A6788B10C4B4FF4803286
:100CD000C3F80823C3F8482301225A60084B1022A6
:100CE000C3F88420074B01221A609A607047064BB4
:100CF00001221A60F6E700BF870200200040024090
:100D000000E100E0002000400010014020BF40BF93
:100D100020BF704738B50446FFF76CFF054D2B78B0
:100D200013B9FFF7F3FFFAE72046FFF7BDFF4FF0D7
:100D3000FF3038BD98020020F8B5064615461C461F
:100D4000EFF3108772B61D4B18701D4BFF281A70F9
:100D500003D00A461B4902F021FEFF2D04D0224693
:100D60001949284602F01AFE184CFF23237087F316
:100D700010880698164FFFF73DFF3B7813B923788C
:100D8000FF2B18D0FF2E02D0304602F073FEFF2D4D
:100D900002D0284602F06EFE0698FFF785FF237802
:100DA000FF2B18BF20784FF0FF03237014BF40B211
:100DB0004FF0FF30F8BDFFF7A9FFDEE73800002055
:100DC00039000020D9020000ED0200003A000020A6
:100DD0009802002007B500230092FF22FFF7ACFF26
:100DE00003B05DF804FB0000064BD3F840213AB194
:100DF000054A012111700022C3F84021D3F8403187
:100E0000704700BF0040024098020020224B0022A1
:100E10000121092082B0C3F80015C3F8F025C3F8FA
:100E2000100501A8C3F81825C3F8F425C3F8F82560
:100E3000C3F83016C3F82C06C3F800211960D3F8A4
:100E40000021002AFBD00022C3F80021C3F80421AE
:100E500001225A60104B1A46D3F804110029FBD026
:100E60000021C3F80411C3F8141101219960D2F8CC
:100E70001431002BFBD00123C2F814310023C2F837
:100E80000035019B4FF461605843FF2390FBF3F062
:100E900080B202B0704700BF0070004013B500235D
:100EA000002101220446C0E93E230160C0F8101170
:100EB000C0F81411F0220430CDE9001104F05AF901
:100EC00001238DF807306B4603CB6B46C4F8000155
:100ED000C4F8041103CB0C4BC4F8183103F10433EC
:100EE000C4F81C3103F10433C4F8203140F60D631B
:100EF000C4F80801A4F8243120460F23C4F80C11CB
:100F000084F8263102B010BD0102030440790F3885
:100F100002288CBF0020012070470000074B4FF4CF
:100F20008102C3F80825064A0123C2F8043302F5FA
:100F3000E04253601361034A1370704700F00140B0
:100F40000010004086020020F8B5244D2B785BB2DB
:100F5000002B3FDD224B234ED3F80425224FB24213
:100F60001FBF0022C3F8002201221A611F4A002479
:100F700014700422C3F82C256522C3F800221C4AF1
:100F8000C2F84C41D2F84C114FF4AA6001215160D3
:100F90001161D160C2F84C054FF40E70C2F84405DF
:100FA0001448C0F88875C0F88C254FF48102C0F849
:100FB0004C49C0F80425C3F80813C3F80465D3F8F6
:100FC00050252AB919602B78013B5BB22B70F8BD14
:100FD0001961F8E7FFF7A2FFF5E700BF4F02002015
:100FE000001000407D0500200C110040860200200A
:100FF0000080004000F001402DE9F0411E46334BD7
:10100000D3F8FC3F0446884617460BB9FFF7D2F9E0
:10101000202F2F4D28BF20273A464146A81C04F018
:1010200085F82F70002E34D1A4F1FF035A425A41A3
:101030006B78284F62F30003DBB2C3F34102013245
:1010400062F34203FF2C6B7025D10323224E3B70C9
:1010500000233D7833701D4B6DB2D3F8282594FAE8
:10106000A4F424BA22F0FF02E4B21443C3F82845E2
:1010700091221A4CC3F830254FF47F432380FFF7A9
:1010800063FFDFF85C8098F800304BB9FFF73EFE55
:10109000F9E70122CCE7002E0CBF0F230323D5E78D
:1010A00023881BB213F5807F08D13B785BB2ED1A21
:1010B0004FF6E373A3EBC5031BB22380034B8122DE
:1010C000C3F830253078BDE8F08100BF0010004043
:1010D0007D0500204F0200208402002058050020DA
:1010E000860200206F4BD3F82821012AF0B422D1C8
:1010F0000021C3F82811D3F828111A62D3F850251B
:10110000032A40F08580D3F80824002A7DD14722A5
:10111000C3F80022634BD3F80834042B0BD1624B85
:10112000624901225A640978D3F84425033102EB5D
:101130004112C3F844255B4BD3F80021012A09D1A1
:101140000022C3F80021D3F800115849C3F8041550
:10115000C3F82C25D3F80C21012A54D10022C3F85E
:101160000C21D3F80C210922C3F86025D3F85025AF
:10117000032A0BD0D3F85025022A07D0D3F85025E4
:10118000042A03D0D3F85035092B3CD1454AD2F874
:101190000034002B7ED0D2F80834042B434B6BD0A4
:1011A0005878D2F80C14D2F80844C0F3410041EA50
:1011B00000413F4850F824408C4224D0D2F80844E3
:1011C00040F82410D2F8481583F82210EFF3108469
:1011D00072B6EFF3108672B636494D7A0F78EDB2DB
:1011E00086F31088BD4218D184F3108840F2791339
:1011F000C2F8003201231361D2F8082450F82230DB
:10120000013340F82230F0BC704740F279127FE79A
:1012100040F25B12C3F800228DE70A7A02EB8202E9
:10122000C2EBC2004A6802449A420CD0184603F14D
:10123000200550F8046B42F8046BA842F9D10588E8
:101240001580807890700A7A0D78501C90FBF5F22A
:1012500005FB1202D2B20A724A7A0132D2B24A7243
:1012600084F3108893F822209A7001221A705A7819
:1012700042F001025A70C6E71A78012A04D19B781D
:101280000D4A5B421BB213800C4B0122F0BC1A705A
:10129000FFF744BE40F27913C2F800320123136114
:1012A000B1E700BF00100040008000405A05002058
:1012B000540200208C0200205805002084020020E7
:1012C000094BD3F84C21012A0DD15A601A61002232
:1012D000C3F84421D3F84431044B1B780BB9FFF712
:1012E00033BEFFF71BBE7047008000408402002021
:1012F000074B084A1870D2F8243590FAA0F000BACB
:1013000023F0FF03C0B21843C2F82405FFF71AB94F
:10131000850200200010004010B419B15DF8044BA4
:10132000FFF76ABE08465DF8044B704710B50A4CDB
:1013300023688342237B1BBF20606FF34713203356
:10134000237308BF237323680BB11B68984702F00F
:10135000CFFC606010BD00BF74020020044B5B7BBB
:1013600003F00F03052B02D90248FFF7DFBF7047D8
:10137000740200202000002008B502F0B9FC024BE6
:101380005B68C01A08BD00BF7402002008B5FFF7F3
:10139000F3FFB0F5FA6F0C4B02D81A7B920712D507
:1013A0000A4A5278FF2A08D01A7B09486FF30002D4
:1013B0001A73BDE80840FFF7B9BF1B7B5F2B94BFD2
:1013C00004480548F5E708BD7402002088020020A3
:1013D00008000020200000203000002008B50B4B42
:1013E0001B78FF2B04D00A48BDE80840FFF79EBFDA
:1013F000FFF7C2FFB0F5FA6F06D9064B1B7B5F2BD8
:1014000094BF05480548EFE708BD00BF88020020EB
:101410002800002074020020080000203000002076
:1014200010B5104CA37BFF2B0DD002F061FC0E4BCE
:10143000A27B9978A06091420C4818BF9A70BDE8D1
:101440001040FFF773BFFFF797FFB0F5FA6F08D9A9
:10145000237B5F2B89BF6FF3C303054823730548C4
:10146000EDE710BD74020020880200201800002063
:101470002800002020000020024B1B680BB15B6895
:101480001847704774020020044B587B00F070002E
:10149000A0F1700358425841704700BF7402002009
:1014A00008B5FFF769FF0246FFF7EEFF4EF660232F
:1014B00042F21071002814BF18460846824204D92F
:1014C0000248BDE80840FFF731BF08BD100000200A
:1014D000044B05485A7B6FF306125A7300221A60B8
:1014E000FFF724BF740200201000002008B5FEF7AB
:1014F00061FF034B1878BDE80840FFF7F9BE00BF55
:1015000088020020431EDBB2FD2B10B5044609D82B
:10151000054B1870FFF7ECFE00202146FFF762FB39
:10152000012010BD0020FCE78802002010B5FEF766
:1015300041FF20B90E48BDE81040FFF7F7BE0D4A45
:101540000D4C137B43F010031373E37864216FF3A6
:1015500000030020E3702170FFF744FB2078FF2890
:1015600001D10648E7E7FFF7CDFF0028F9D1E1E711
:10157000300000207402002088020020200000209B
:10158000037923F0080343EAC10101717047C3786E
:1015900023F0030343F00203C370704710B500212A
:1015A0000446017041708170C17001714171817197
:1015B0001A22073003F0DEFD2046BDE81040FFF799
:1015C000E6BF037901F0070123F007030B43037122
:1015D0007047000038B50B4D82712D789DF81020B2
:1015E00042710446457081701946FFF7EAFF9DF885
:1015F00014102046FFF7C4FF237923F01003237152
:10160000204638BD88020020C078C008192828BFAD
:101610001920704710B50E4B1A780A70CA78520715
:10162000044610D40846FFF7EFFFC21DD2B2DB78A4
:10163000D8070AD4A4F1FF00434243412046BDE845
:101640001040FFF769BE2022F1E70123F6E700BF53
:101650008802002070B5154D2B7BDB07064680788D
:1016600003D5FF2820D1044602E080B9104B5C78F6
:1016700031462046FFF7CEFF0D4B5B78A3420DD1DC
:101680006B7B60B95A1C62F303036B7306E0FF289F
:10169000E9D03146FFF7BEFF0028E7D070BD6FF3F9
:1016A00003036B730120F9E70020F7E774020020C1
:1016B00088020020044B1B7BC3F380030BB1FFF7B0
:1016C000C9BF1846704700BF7402002008B5C37830
:1016D0005B0704D4FFF798FF0730C0B208BD19209C
:1016E000FAE7F0B58BB004460E46FEF755FF01AAA7
:1016F0000546234604F1200C17461868596814461D
:1017000003C4083363452246F7D11B7823709DF844
:10171000073003F00303022B0BD13846FFF774FFA9
:1017200030703846FFF7D2FF431B584258410BB088
:10173000F0BD0020FBE7C378192928BF192103F069
:10174000070343EAC103C370704708B503795B110F
:10175000012B01D1C07908BD23B9073003F046FC45
:10176000C0B2F8E70020F6E708B5FFF7EEFF00305B
:1017700018BF012008BD03795B11052B02D1D0F8F9
:101780000700704713B9073003F034BC00207047DE
:1017900038B504460D4619B1084604F079FBC1B2CC
:1017A0002046FFF7C8FF237903F01F03237120466B
:1017B000FFF72AFF29460246E01D04F071FB204690
:1017C000FFF722FF20440023C371204638BD0000EC
:1017D00007B50E4A0E48137B03F0F90343F00103EB
:1017E00013730C4BFF229A705A7000210723CDE926
:1017F000003111460323FFF7EDFE0749FFF7C8FF4D
:1018000003B05DF804EBFFF725BF00BF74020020B2
:10181000E9060020880200201E81000007B50B4B5E
:101820001A78FF2A0ED103230021CDE900310848A0
:10183000FFF7D0FE0749FFF7ABFF03B05DF804EBFD
:10184000FFF708BF03B05DF804FB00BF880200206B
:10185000E90600201E81000010B50C460121024659
:10186000FFF769FF1379D47103F01F0343F02003DE
:101870001371104610BD00000B4B07B5197B0B48C8
:10188000FF2241F008019A73197300211823CDE952
:1018900000310323FFF79EFE0121FFF7DDFF03B0B8
:1018A0005DF804EBFFF7D6BE74020020E9060020C5
:1018B00038B504460D460521FFF73DFF2379C4F8EE
:1018C000075063F01F032371E272204638BD10B544
:1018D0000C4604210246FFF72EFF1379C2F8074099
:1018E00003F01F0363F05F031371104610BD10B5C2
:1018F0000C4602210246FFF71EFF1379A2F80740AB
:1019000003F01F0343F040031371104610BD0000A5
:101910002DE9F047164E174F10254FF0000AB0463C
:101920006B10EA07F35C4CBF03F00F031B09072B96
:101930000ED818F803A03846514601F069FE01356B
:10194000F22DEDD10C490B48BDE8F04701F06ABE1D
:10195000053BDCB24FF000095146384609F1010958
:1019600001F056FE5FFA89F39C42F5D8E7E700BF25
:101970002C7F0000740700201F7F000070474FF08D
:1019800080420123C2F878354FF0102002F5F03282
:101990000021C2F80435C0F80C12C2F80415A2F5F3
:1019A000E032C2F800357047FFF784BE08B50B4B34
:1019B0001B784370037923F0070343F0010303719D
:1019C0000246FFF7DDFD064B587810F0010004D009
:1019D0001046BDE80840FFF76DBE08BD8802002034
:1019E0005002002037B50546FFF7C6FC1623044613
:1019F0000093FF220323019500210548FFF7EAFD2C
:101A00002146FFF764FF03B0BDE83040FFF752BE48
:101A1000E906002037B5CDE9001300231946044636
:101A2000154602460648FFF7D5FD0649FF2C18BFAC
:101A30002946FFF7ADFE03B0BDE83040FFF73ABEE0
:101A4000E9060020267F000073B50D4616460446C1
:101A500010B30B2301920093FF22032300210F48B0
:101A6000FFF7B8FD2146FFF793FEFFF723FE04467C
:101A70007DB10C23FF220093002103230196074828
:101A8000FFF7A8FD2946FFF783FEFFF713FE04408A
:101A9000E4B2204602B070BD0124E9E7E906002067
:101AA000024B034AC3F8002602F05EB90000014071
:101AB0003546526E08B5FFF7F3FFBDE8084000F069
:101AC00037BA38B5054602F013F9044602F010F9AA
:101AD000001BA84202D2FFF7EDFFF7E738BD000078
:101AE00010B50022104C11491148FFF7ADFF00233B
:101AF00022461E211846FFF78DFF224600230621AD
:101B00000120FFF787FF2246002307210220FFF76D
:101B100081FF2246002308210320FFF77BFF3220AC
:101B2000BDE81040FFF7CDBF1E8100009C7E000085
:101B3000A27E00002DE9F843114C804689461646E6
:101B400002F0D6F8237923F0070343F00703074692
:101B50002371002502F0CCF8C01B40450CD25DB9C2
:101B6000FFF7A8FF237903F007039945F2D16579C0
:101B7000AB1B5D425D41EDE72846BDE8F88300BF41
:101B8000C8060020F7B500260F250323FF22CDE964
:101B9000005604460F46FFF71DFD0F49FFF7F8FDFD
:101BA00002212046FFF7C7FD2379267203F01F03A9
:101BB00063F03F0323710123E3712046FFF77AFDB1
:101BC00047B92A4603214FF4FA6003B0BDE8F0405C
:101BD000FFF7B0BF03B0F0BD1E810000114A53787B
:101BE00073B543F00103104E5370042400251A23EB
:101BF000FF2200930021032301953046FFF7EAFC02
:101C00000221FFF729FEFFF7CFFE1B2203214FF42D
:101C1000FA60FFF78FFF18B9013C14F0FF04E6D11A
:101C200002B070BD50020020E906002037B5124D09
:101C300000212846FFF7A6FF0023104A1121FF20AC
:101C4000FFF7E8FE06240021FF22CDE9004103232F
:101C50002846FFF7BFFC0A4B5978FFF7FDFDFFF759
:101C6000A3FE224603214FF4FA60FFF763FFFFF75C
:101C700037FF03B030BD00BFE90600201E81000021
:101C80008802002010B5064C63789B0707D4FFF745
:101C9000CDFFFFF7A3FF637843F00203637010BD2D
:101CA0005002002013B52A484178447900294CD1CC
:101CB0000D2C01D1FEF7FEFA1B2C08D1FFF754FDC5
:101CC000244B5A7860F300025A70012433E0062C4A
:101CD0000FD1C3795BB1A3F14D02534253411D486B
:101CE000012240F203110370FEF774FFEDE70123B8
:101CF000F5E7132C02D1FFF799FFE6E7122C03D189
:101D00000846FFF76FFEE0E7022C0CD1CDE9004159
:101D10000323FF221048FFF75DFC1049FFF7D7FDB2
:101D2000FFF742FED1E7012C08D10D4B1BB1FFF7A5
:101D300022FDAFF30080204602B010BD0A2CC4D0B3
:101D40001C2C14BF00240124F5E71A2CF9E700BF6E
:101D5000C806002050020020E9060020FF0203020E
:101D6000000000002DE9FF47624C0DF10F012046F5
:101D7000FFF7B7FC00285AD02046FFF745FC5E4924
:101D800022794B7B94F802A0657994F8018094F84D
:101D900000E043F080034B73584B93F800C0D445E8
:101DA00002F007090F461E467ED12044002311078A
:101DB000C37118D5524B214604F1200E184651F834
:101DC00004AB43F804AB7145F9D122F0180209784D
:101DD000197042F01002027180F801C080F8028090
:101DE0004748FFF767FC2379DB0656D4B9F1030FA8
:101DF00053D14048FFF78AF80146C0B9042D16D0E8
:101E0000082D17D13B7BDD0711D53A48FFF79DFC24
:101E1000FF280CD00130C0B2FF2808D0B37883422D
:101E200005D93B7B9C0702D4B07086F8018004B0D2
:101E3000BDE8F087182D0CD119230190009341467D
:101E40004B46FF222E48FFF7C5FB0121FFF704FD9B
:101E50001CE0192D0AD13B7B1807E8D561F3C303B9
:101E600024483B73FFF771FCB873E0E71E2DDED00A
:101E70001D2D0ED11F2301900093FF224B462048B9
:101E8000FFF7A8FB6FF0FF01FFF731FDFFF7E2FB63
:101E9000CDE7FFF707FF0028C9D11A4B002BC6D0AA
:101EA0001448AFF30080C2E7BAF1FF0FBFD1B9F118
:101EB000030F1BD10B7B590701D5072DB7D0142D6C
:101EC000B5D173787345B2D101F012FFC0F30900A8
:101ED00001F028FF15230022CDE9003241460323FB
:101EE000FF220748FFF776FB7178AFE75B78734511
:101EF0009DD1D2E7C806002074020020880200208D
:101F0000E906002000000000084B1B7BDB0610B533
:101F10000AD50624FEF740FA30B1013C14F0FF0464
:101F200002D0FFF71FFFF5E710BD00BF74020020CD
:101F300008B5FFF7A1FABDE80840FFF7E5BF0000CC
:101F4000F8B5054601F0D4FE0A4E074601F0D0FE72
:101F5000C01BA84203D315B100242046F8BDFFF7EB
:101F6000E7FF347BC4F38004FFF79AFD002CEDD02B
:101F7000F3E700BF740200202DE9F74F99463D4B6F
:101F80009DF830600546187BC0F3800488461746EC
:101F90009A462CBB01F0ACFE8346204642F20F74F9
:101FA0009AF80C305B0716D4A84216D2A0420BD97F
:101FB0002C1AB8F1000F28D0631EB3F5F97F11D8A1
:101FC0002846FFF77EFD08E0FFF774FD01F090FE64
:101FD000A0EB0B00E4E7A842EAD36FF0010536E07E
:101FE0002C46E6E700212023CDE90031FF22032320
:101FF0002148FFF7EFFA4FF4FA71FFF768FCFFF79B
:10200000D3FC4FF4FA70FFF75CFDFEF779F9FF2F70
:1020100027D0FF2E1FD000949DF834303246494619
:102020003846FEF789FE0546FFF760FAB8F1000F63
:102030000DD000212123CDE90031FF2203230E48DA
:10204000FFF7C8FA2146FFF742FCFFF7ADFC284630
:1020500003B0BDE8F08F224649463846FEF7BAFE87
:10206000E1E7FF2E03D12046FEF754FEDBE76FF0D9
:102070000105D9E774020020E906002007B5FF2317
:10208000CDE900331A46FFF777FF03B05DF804FB94
:102090000146014801F0D0BA740700201FB50D4970
:1020A0000D4C01A801F059FD01A8FFF7F1FF01A8AF
:1020B00001F00EFD204601F047FA204601F056FAE5
:1020C000204601F065FA054A7621204601F079F8AC
:1020D00004B010BDD47F000010070020D8070020F6
:1020E0002DE9F04F99B005460C460FA8DFF878A10E
:1020F000DFF87C8101931746FFF750FA8DF84250C4
:102100008DF84140DFF86CB10024022239460FA857
:10211000FFF7CEFB0021FFF749FC0646002864D1FB
:10212000514606A801F019FD0A22294603A801F02C
:1021300033FD03A906A801F0A7FD594601F0B0FD43
:1021400001340A228146214609A801F025FD09A98A
:10215000484601F099FD01460CA801F050FD0CA87D
:10216000FFF796FF0CA801F0B3FC09A801F0B0FC42
:1021700003A801F0ADFC06A801F0AAFC98F80D3008
:102180000A2066F3030388F80D30FFF79AFC324B00
:102190001B88A342B9DC314C314909A801F0DDFCB0
:1021A0004FF47A730A222168B1FBF3F106A801F01B
:1021B00005FD06A909A801F067FD2A4901F070FD97
:1021C00001460CA801F01BFD0CA8FFF761FF0CA84D
:1021D00001F07EFC06A801F07BFC09A801F078FC68
:1021E00031462068FFF74AFF8CE71F4906A801F037
:1021F000B4FC0A22294603A801F0CEFC03A906A8D4
:1022000001F042FD194901F04BFD02220446394616
:1022100009A801F008FD09A9204601F035FD014695
:102220000CA801F0ECFC0CA8FFF732FF0CA801F0A1
:102230004FFC09A801F04CFC03A801F049FC06A8DA
:1022400001F046FC019B23B1044B00211868FFF705
:1022500015FF19B0BDE8F08F3C00002040000020C1
:10226000D97E0000057F0000BA7E00000A7F0000D2
:1022700074020020BF7E0000F0B52DED028B85B00A
:10228000FEF7C4FD284C08EE100A204600F09EFF21
:102290000746204601F0F4F80646204600F0E0FF2D
:1022A00002F040F81EA3D3E9002302F0BDF900229A
:1022B0001E4B02F0B9F9B8EE488ADFED1D7AC8EE80
:1022C000277A002304460D461846262117EE902A49
:1022D000FFF706FF00233A4619460120FFF700FFEB
:1022E0003246002301210220FFF7FAFE294620464C
:1022F00002F048FB0123024604210320FFF7F0FE11
:102300000C4901A801F029FC01A8FFF7C1FE01A8B2
:1023100001F0DEFB05B0BDEC028BF0BDAFF3008039
:102320007AE063B0E254F53F100700200000594006
:1023300000007A44A57F000038B51648FEF7AEFDD0
:10234000154B14221A70154A5A60EFF3108272B6B8
:1023500000211972597282F31088114C1148124DE4
:10236000FFF71CF91148FFF719F91149204601F050
:10237000F4FB20460F4C10492A4601F069FE204626
:1023800000F056FC2A4620460C49BDE8384001F0D2
:102390005FBE00BFA00500208C0200209902002033
:1023A00068070020C806002000000020E906002081
:1023B0001E81000010070020D13A0000432C0000CD
:1023C0004FF08043002210B5C3F8002101221A60AB
:1023D000D3F80021002AFBD001249C67074B084852
:1023E000C3F84045A3F5E0334FF4E1315C60DC60B5
:1023F000DC6100F053F8204610BD00BF00E0014052
:102400007407002070B5164D164EC5F80066FFF72C
:10241000B5FAFFF7D5FF0446FFF77AFA14B9FFF7CC
:102420003FFBFCE7104C63786FF341036370FFF7E9
:10243000A6FA012240F203112046FEF7B1FBFF216C
:102440000120FEF7CFFBFFF743F8084B084A1A605C
:102450000020FFF775FDFFF721FEC5F8006670BD8F
:10246000000001403546526E500200200C0700204B
:10247000851C000008B501F0A5FCFFF7C3FF054C63
:10248000FFF718FBFFF7F8FE002CF9D0AFF3008040
:10249000F6E700BF00000000012070470368132228
:1024A000DB69184770470369C3F81C150369D3F843
:1024B0001C21002AFBD00022C3F81C2101207047F8
:1024C00010B490F95C30144C59090122203103F00A
:1024D0001F0302FA03F344F8213003695DF8044B4B
:1024E0000421C3F8081303695A600369DA600369B9
:1024F0000022C3F8002502694FF0FF33C2F80C3503
:102500000269C2F814350269C2F80835026914304C
:10251000C2F8103501F0AEB800E100E0143001F06F
:10252000BBB8143001F0BEB8143001F0A7B80000F9
:10253000036990F85E2010B5C3F80C25036990F884
:102540005D20C3F8142590F861200369012A01BFBA
:1025500090F85F40C3F81045036990F8604006BFEB
:10256000C3F8084503690022B1F5966FC3F86C25DE
:1025700069D9B1F5166F69D9B1F5965F69D9B1F529
:10258000165F68D9B1F5615F67D9B1F5964F66D925
:10259000B1F5E14F65D9B1F5164F64D9B1F5614F89
:1025A00064D9B1F5963F64D9B1F5E13F63D9B1F58E
:1025B000613F63D9364B994263D9B1F5E12F63D9B5
:1025C000B1F5612F94BF4FF070634FF080530269F3
:1025D000C2F8243503690422C3F8002501690023E9
:1025E000C1F808310169C1F81C31016901230B6090
:1025F00001698B600169C1F8042390F95C205109DD
:1026000002F01F0293406031224A42F8213090F9D3
:102610005C30002BBDBF03F00F0302F6FC32D21872
:102620009B18B5BF60236022137683F8002390F9CE
:102630005C300122590903F01F0302FA03F3154A23
:1026400042F8213010BD4FF49E23C0E74FF41D2304
:10265000BDE7114BBBE7114BB9E7114BB7E7114B86
:10266000B5E7114BB3E74FF41D03B0E74FF46B032D
:10267000ADE70E4BABE74FF0EB73A8E74FF06C7391
:10268000A5E74FF08063A2E74FF0E8639FE700BF44
:1026900090D0030000E100E000B0130000502700DC
:1026A00000F03A0000A04E0000C0750000903A0112
:1026B0002DE9F0411E4600254FF47A73C0E901531D
:1026C0000D4B044640F8143B1746884600F0BEFF09
:1026D0000A4AC4F8108084F85C7052F8263084F8F6
:1026E0005D309DF8183052F8233084F85E3084F85D
:1026F00061502046BDE8F08178800000088000002D
:1027000010B50369D3F8082104464AB1D3F8181567
:102710001430C9B200F0A3FF23690022C3F80821D6
:1027200010BD00000148FFF7EBBF00BF7407002099
:1027300007B5192300930222182303490348FFF722
:10274000B7FF03B05DF804FB0020004074070020D1
:102750002DE9F84380460D46174601EB02090C4669
:102760004C45A4EB05060BD0D8F8003014F8011B3B
:102770001B68404698470028F2D13046BDE8F883F0
:102780003E46FAE77047203000F086BF203000F068
:1027900075BF203000F086BF38B5437F0D460BB9BA
:1027A000002038BD00F16804204600F083FF0028B7
:1027B000F6D12046294600F052FF0120F1E7000043
:1027C0002DE9F0411E4600254FF47A73C0E901530C
:1027D0000C4B044640F8203B8846174600F036FF75
:1027E00004F1680000F032FF9DF8183063769DF820
:1027F0001C302676C4E90487A37665772046BDE8B9
:10280000F08100BFA8800000817E284A0123C376A2
:1028100070B552F82140417E52F821104FF0A0458A
:1028200004F5E07401F5E07140F20C6645F82460AF
:1028300045F8216001694FF0CC74C1F82445016965
:102840000624C1F80045847E016952F82440C1F88D
:102850000845447E016952F82420C1F80C2590F9FE
:102860001820510902F01F0293406031104A42F8CB
:10287000213090F91830002BBDBF03F00F0302F692
:10288000FC32D2189B18B5BF40234022137683F840
:10289000002390F918300122590903F01F0302FAAE
:1028A00003F3034A42F8213070BD00BF08800000E6
:1028B00000E100E02DE9F041044688461F46154638
:1028C000002A50D000F12006304600F0D3FE2369E4
:1028D000C3F88885236901221A622369C3F8346525
:1028E0002369C3F8385523691A602269D2F84C313C
:1028F0001BB9D2F82431002BF8D00023C2F84C3198
:102900002269D2F85C311BB9D2F82431002BF8D0FF
:102910000023C2F85C3122696FB9D2F8243153B96F
:102920000123D3612369D3F84821002AFBD0002278
:10293000C3F8482109E0012353612369D3F8042136
:10294000002AFBD00022C3F804212369D3F82421F4
:1029500012B10022C3F824212369D3F83C05206674
:10296000C0B2BDE8F0811046FBE70123FFF7A2BF2C
:1029700010B5044680F8B010683000F07BFE0123EB
:10298000637710BDF8B500234377036990F8B02052
:10299000C3F88825036901261E62036900F16805F2
:1029A0000446C3F8445528460F4600F075FE2369D7
:1029B000C3F8480523699E602369D3F850211AB9EA
:1029C000D3F82421002AF8D00022C3F85021284649
:1029D00000F062FE236930B1D3F860211AB9D3F850
:1029E0002421002AF8D00022C3F8602123696FB99E
:1029F000D3F8242152B90122DA612369D3F848219E
:102A0000002AFBD00022C3F8482109E001225A61C4
:102A10002369D3F80421002AFBD00022C3F8042143
:102A20002369D3F8240168B10022C3F82421236963
:102A3000D3F8C404C3F8C404022803D004280CBF8C
:102A400003200420F8BD0121FFF79CBF70B5436946
:102A5000D3F86421044692B10022012500F120063A
:102A6000C3F864210577304600F004FE6369C3F8BB
:102A7000346563694022C3F8382563691D6363695F
:102A8000D3F86821DAB10025C3F8685104F168066B
:102A9000012363772577304600F0ECFDD4F8B4309D
:102AA00003B19847636965773046C3F8446500F021
:102AB000F3FD6369C3F84805636901225A636369DA
:102AC000D3F8042162B10022C3F80421237F3BB173
:102AD0006369D3F83C05D4F8B830206603B1984751
:102AE0006369D3F8242152B10022C3F82421636919
:102AF000D3F8D024C3F8D024636901225A6170BD91
:102B00000148FFF7A3BF00BFD807002007B5162371
:102B10001722CDE900324FF040220423114603482A
:102B2000FFF74EFE03B05DF804FB00BFD80700209E
:102B3000704770477047704710B5044601F040F980
:102B4000204610BD10B5044601F03AF9204610BDEC
:102B500010B5044601F034F9204610BD0B4610B5FF
:102B6000282204460021184602F004FB0B220949E2
:102B700003F096F900220121C272C160A16842628D
:102B8000054AC261054A016182610D21044A416121
:102B9000026210BDC0800000000020C20000AA42F6
:102BA0000AD7233C0B4610B52822044600211846BC
:102BB00002F0E0FA0B22094903F072F90022012128
:102BC000C272C160A1684262054AC261054A0161E0
:102BD00082610621044A4161026210BDC08000008A
:102BE0000000964300808944A69B443C0B4610B5E8
:102BF000282204460021184602F0BCFA0B2209499B
:102C000003F04EF900220121C272C160A168426244
:102C10000022C261044A016182610C21034A4161C0
:102C2000026210BDC08000000000C84200004040A9
:102C300000224FF0FF31C0E902220261C0E9081210
:102C4000704710B50446806810B103685B68984708
:102C5000E06810B103685B689847206910B10368A9
:102C60005B689847204610BD2DE9F04190F923306C
:102C7000013305460F4604D14068BDE8F04101F03C
:102C8000BEB9072600244FF00108002195F9230062
:102C900001F01EF908FA06F1394095F9210001F01A
:102CA00017F995F923000121640001F011F995F954
:102CB0002200E4B201F01EF908B144F0010416F15B
:102CC000FF36E2D22046BDE8F0817FB590F9203092
:102CD000013304460E46154613D1017D0068FFF707
:102CE00047FE2068036831461B68984720680368E0
:102CF00029461B689847206804B0BDE87040FFF77C
:102D0000A2BE90F9233001330DD14FF0006301933F
:102D10000023039302238DF8083004AB13E90E005F
:102D2000406801F05FF9002194F9200001F0D0F82B
:102D300006F07F012046FFF797FF29462046FFF760
:102D400093FF012194F9200001F0C2F894F9233097
:102D5000013305D1606804B0BDE8704001F04EB9A0
:102D600004B070BDF8B590F850509DF818C09DF8AB
:102D70001C709DF8206061F3871562F3020563F310
:102D8000C50590F8543080F850506CF3471380F824
:102D9000543090F84C3067F3C503044666F30203E1
:102DA00080F84C300022F421FFF78FFF94F8542074
:102DB00020465209F221FFF788FF94F84C20C2F315
:102DC000C20302F007019B0043EA411343EAD21217
:102DD0002046F521FFF779FF94F85020C2F3C20393
:102DE00002F007019B0043EA411343EA9212204696
:102DF000F421BDE8F840FFF768BF30B590F9203006
:102E0000013385B004460D4618D1017D0068FFF7F7
:102E1000AFFD2068036829461B6898472068FFF7C4
:102E200012FE0122217D2068FFF79FFD20680368C4
:102E3000DB689847C5B2284605B030BD90F923300D
:102E400001330DD14FF0006301930023039302235C
:102E50008DF8083004AB13E90E00406801F0C2F8A9
:102E6000002194F9200001F033F845F0800120465C
:102E7000FFF7FAFE00212046FFF7F6FE0121054686
:102E800094F9200001F024F894F923300133D2D1D1
:102E9000606801F0B3F8CEE730B590F92030013327
:102EA00085B004460D461FD1017D0068FFF760FD27
:102EB0002068036829461B6898472068FFF7C3FD10
:102EC0000222217D2068FFF750FD20680368DB683F
:102ED0009847054620680368DB68984740EA05255F
:102EE000ADB2284605B030BD90F9233001330DD185
:102EF0004FF0006301930023039302238DF8083001
:102F000004AB13E90E00406801F06CF8002194F95D
:102F1000200000F0DDFF45F080012046FFF7A4FE11
:102F200000212046FFF7A0FE002105462046FFF7BE
:102F30009BFE012140EA052594F9200000F0C8FF1E
:102F400094F923300133ADB2CBD1606801F056F86B
:102F5000C7E708B5FFF7A0FF40BA80B208BD30B59B
:102F600090F92030013385B004460D4623D1017D10
:102F70000068FFF7FDFC2068036829461B68984736
:102F80002068FFF760FD0322217D2068FFF7EDFC3C
:102F900020680368DB689847050220680368DB68DF
:102FA0009847054320680368DB6898472D0205436E
:102FB000284605B030BD90F9233001330DD14FF0D4
:102FC000006301930023039302238DF8083004ABC0
:102FD00013E90E00406801F005F8002194F9200083
:102FE00000F076FF45F080012046FFF73DFE00210E
:102FF0002046FFF739FE002105022046FFF734FE88
:10300000002105432046FFF72FFE2D020543012135
:1030100094F9200000F05CFF94F923300133C7D10C
:10302000606800F0EBFFC3E738B588210446FFF77E
:1030300090FF8A2120852046FFF78BFF8C21608539
:103040002046FFF786FF8E21A0852046FFF781FFEF
:103050009021E0852046FFF77CFF922120862046C4
:10306000FFF777FF942160862046FFF772FF9621D5
:10307000A0862046FFF76DFF9821E0862046FFF7E7
:1030800068FF9A2120872046FFF763FF9C21608715
:103090002046FFF75EFF9E21A0872046FFF759FFDD
:1030A000A121E0872046FFF7A8FEE12184F8400037
:1030B0002046FFF74EFFE321A4F842002046FFF729
:1030C0009CFEE42184F844002046FFF796FEE521AB
:1030D00005462046FFF791FE6DB200F00F0040EA72
:1030E0000510A4F84600E6212046FFF786FEE521FC
:1030F00005462046FFF781FE6DB2001140EA05103B
:10310000A4F84800E7212046FFF777FE84F84A003C
:1031100038BD08B5F321FFF770FE00F0010008BDCF
:1031200030B5044690F92000421C85B029D12068B2
:10313000FFF76AFBD0212046FFF75FFE6028A06101
:103140003DD1B622E0212046FFF7BFFD0A2000F066
:10315000E9FD2046FFF7DDFF05460028F6D12046B1
:10316000FFF762FF052300931A4603212046CDE9AD
:103170000155FFF7F7FD642000F0D4FD012005B0F4
:1031800030BD012100F0A4FE94F92000012100F0DF
:1031900077FE94F92300431C03D1606800F00CFF14
:1031A000C8E7012100F06CFE94F92100012100F034
:1031B00067FE002194F9220000F062FEBAE70020C9
:1031C000DDE701750260FFF7ABBF000010B5FA2123
:1031D0000446FFF7C4FEB0F5000F22D0238DDFEDCB
:1031E000126AC3EB20225B00C3EBE010B4F92A3073
:1031F00052435843B4F92C30121353439B13626A61
:1032000003EBE0231344E36103EB830380331B12DE
:1032100007EE903AF8EEE77A87EEA67A17EE100AF4
:1032200010BD9FED027AF9E70000C8420000C07FA0
:1032300038B50C46054620220021201D01F09AFFDA
:1032400024232360AB6863600D23A36000F050FD6E
:103250002061E868FFF7BAFF6061012038BD000017
:103260002DE9F74F0646FFF7B1FFF7213046FFF78C
:1032700076FEB0F5000F074600F0D680F469B4F58D
:10328000FA324FEAE47545F1FF33CDE90023DDE979
:1032900000325343009A01990098A2FB0289B6F9C3
:1032A000302009EB43095143D31700FB0311A2FB64
:1032B00000230B441D0345EA12551403B6F93220CE
:1032C000D31702FB09FC08FB03CCA2FB08236344D1
:1032D0004FEA122A4AEA036A4FEA232B14EB0A0048
:1032E000F28D45EB0B01041C41F50045A4FB02AB3C
:1032F00002FB05BB4FEA6B024FEAEB7352EA030194
:1033000000F09580B6F938A000984FEAEA7B0AFBF6
:1033100009F108FB0B11AAFB08898944B6F936A00C
:1033200001994FEAEA7B0AFB01F1AAFB004500FB89
:103330000B110D44600410EB080A4FEA45414FEAB7
:103340002710C0F5801041EAD43141EB090B4FEA58
:10335000E0794FEAC97141EA50010191C107B6F91C
:1033600034000091002414EB0A084FEAC00545EB35
:103370000B09DDE9004540F63547B4EB080465EB81
:103380000905A4FB070107FB051101F059FCB6F97B
:103390003E20B6F93CA04C13450B45EAC14502FB63
:1033A00004F7D31705FB0377A2FB05233B445443E3
:1033B00005FB0344A2FB052380462344500E40EA4C
:1033C000C31010EB080489464FEA636141EB09051D
:1033D0004FEAEA7B0AFB09F108FB0B13AAFB080181
:1033E0001944C20C42EA4132A018B6F93A404FEAF9
:1033F000E14345EB0301020AE51742EA01622F01AE
:1034000026010B12B01847EA147747EB030101F0CD
:10341000D9FBDFED087A07EE100A67EE277A17EE80
:10342000900A03B0BDE8F08FDFED037AF7E7DFED38
:10343000037AF4E70000803B0000C07F000000003A
:1034400038B50C46054620220021201D01F092FED1
:1034500024232360AB6863600623A36000F048FC6C
:103460002061E868FFF7FCFE9FED047A07EE900A02
:10347000C7EE877A0120C4ED057A38BD0000C84246
:1034800010B50446FFF7A2FEFD212046FFF704FD1C
:10349000B0F5004F3AD0B4F94630E2691B05C3EBF2
:1034A0008031B4F94830A2F5963202FB131303F5CC
:1034B0008043D91394F844305343DB1203F50040A2
:1034C00094F94A3053439B1243439B1203F5001275
:1034D000B4F94230534303F500539B134B43DA13C3
:1034E000524394F84010D2114A43A3EB221323EA2B
:1034F000E373B3F1C85FA8BF4FF0C8531B1307EEC7
:10350000903AFAEECB7A17EE900A10BDDFED017A11
:10351000F9E700BF0000C07F38B50C460546202201
:103520000021201D01F026FE24232360AB68636088
:103530000C23A36000F0DCFB2061E868FFF7A0FF2C
:103540006061012038BD0000836810B504464BB9A6
:10355000102000F033FC044B03604FF48C73C0E97F
:103560000234A060A06810BDD0800000C36810B510
:1035700004464BB9102000F021FC044B03604FF4CB
:103580008C73C0E90234E060E06810BD088100007F
:10359000036910B504464BB9102000F00FFC044B32
:1035A00003604FF48C73C0E902342061206910BDC0
:1035B000EC8000002DE9F04106460D4601EB0208C3
:1035C0000C464445A4EB050707D0336814F8011BEB
:1035D0001B68304698470028F3D13846BDE8F08193
:1035E00070B5044608460D4602F052FC23680246B8
:1035F000294620465B68BDE87040184709B1FFF7CF
:10360000EFBF0846704703688A685B680968184717
:1036100003681B68184700000149FFF7E1BF00BFBE
:103620001C81000038B50546FFF7E8FF0446284630
:10363000FFF7F2FF204438BD38B50546FFF7E3FF3A
:1036400004462846FFF7E8FF204438BD08B540226D
:10365000002101F08FFD0022C0E9102208BD026C9C
:1036600010B5531C446C03F03F039C421CBF8154B3
:10367000036410BD0023C0E910337047D0E9102364
:1036800093421FBFC25C013303F03F03436414BF86
:1036900010464FF0FF307047D0E91030181A48BF7D
:1036A00040307047D0E91023934214BFC05C4FF004
:1036B000FF307047036C406C013303F03F031B1A6B
:1036C00058425841704700000649074A074B9B1A69
:1036D00003DD043BC858D050FBDC00F03FF8FCF79A
:1036E000AFFD000000850000000000203002002037
:1036F000FEE7FEE7FEE7FEE7FEE7FEE7FEE7FEE7A2
:10370000FEE7FEE7044B1868421C04BF034B187821
:10371000831F58425841704730010010E00F00F0FD
:10372000074B1B78062B09D1064B1B68C3F3031309
:10373000033B032B02D8044AD05C7047002070473B
:10374000E00F00F0E80F00F023810000024AD2F8F9
:103750000034002BFBD0704700E0014010B5FFF7AC
:10376000D1FF28B1774B784A1B68C3F30423136059
:10377000FFF7D6FF10B1754B754A1A60FFF7C2FF0D
:1037800028B1744B744A1B68C3F342331360FFF7CC
:10379000C7FF20B1714AD36823F08073D360FFF76D
:1037A000B1FF40B14FF080430022C3F80C21C3F8B1
:1037B0001021C3F83825FFF7B3FF10B1684B03227F
:1037C0001A60FFF7ADFF40B1664B05221A60012277
:1037D0009A6700229A603F225A60634B1A68511C14
:1037E0000BBF624B624B1A781B6802BF08331B6821
:1037F000C3F30313062A4DD1033B032B03D85D4AC1
:10380000D35C002B46D04FF080525B4BD2F80414AF
:10381000C3F82015D2F80814C3F82415D2F80C14F4
:10382000C3F82815D2F81014C3F82C15D2F81414C4
:10383000C3F83015D2F81814C3F83415D2F81C1494
:10384000C3F84015D2F82014C3F84415D2F8241454
:10385000C3F84815D2F82814C3F84C15D2F82C1424
:10386000C3F85015D2F83014C3F85415D2F83414F4
:10387000C3F86015D2F83814C3F86415D2F83C14B4
:10388000C3F86815D2F84014C3F86C15D2F8442474
:10389000C3F87025FFF736FF28B1384B384A1B684C
:1038A00003F04F031360FFF72DFF48B14FF0804343
:1038B000D3F80024D20744BF6FF00102C3F80024FC
:1038C000294B1B68062B09D1294B1B68033B022B94
:1038D00081BF2C4A136843F4806313602A49D1F8EE
:1038E000883043F47003C1F88830BFF34F8FBFF3C3
:1038F0006F8F4FF01020D0F80C32DB071ED5234C11
:103900000123C4F80435FFF721FFD0F80C3223F06F
:103910000103C0F80C32FFF719FF0023C4F8043587
:10392000FFF714FFBFF34F8FCA68194B02F4E06230
:103930001343CB60BFF34F8F00BFFDE7154B164A13
:103940001A6010BD240300104035014074C00740C8
:103950000DF0ADBA440200103C050040F0ED00E06F
:10396000A00500401056004030010010E00F00F0AC
:10397000340100101F81000000C0004058020010F8
:10398000E40E00403C17004000ED00E000E0014084
:103990000400FA05440000200090D003F8B52F4F32
:1039A0000D4639680646144699B920222C4801F084
:1039B000E1FB2C4B4FF0FF321A605A602A4B402239
:1039C000C3F88020C3F8802183F806231A600123FE
:1039D0003B60192E38D8032C05D0042C35D0022C8E
:1039E00032D1032400E00224204B1E4A53F8263033
:1039F000002116468856471C29D1194A735442F8AB
:103A000021508A0002F1804202F5C0421B02D2F826
:103A1000100520F4473020F44070C2F81005D2F8A9
:103A2000100503F4F85343EA04430343C2F8103586
:103A3000D2F8103543F00103C2F81035012303FA20
:103A400001F10B4BC3F80413F8BD0124CCE79842F5
:103A5000D3D001310829CDD1F6E700BFBC08002042
:103A600094080020B408002000E100E00880000075
:103A700000600040192822D8114B124A53F8201038
:103A800000239856884217D1FF21D1540E4A0021B5
:103A900042F823109A0002F1804202F5C042D2F8A7
:103AA000101521F00101C2F81015012202FA03F3EA
:103AB000064AC2F8083370470133082BE1D170473A
:103AC00008800000B4080020940800200060004036
:103AD00010B50446006801F00FFB204610BD10B57C
:103AE0000446006808B101F007FB00232360C4E925
:103AF000013310BD38B504460D460068013102F0AF
:103B000087F910B1C4E90005012038BD036810B57C
:103B1000044623B143688B4201D3012010BD2046E7
:103B2000FFF7E8FF0028F9D0A368002BF5D1226841
:103B30001370F2E770B50E46114604461546FFF7BE
:103B4000E5FF20B92046FFF7CAFF204670BDA560FB
:103B50003146206802F094F9F7E738B500230446AF
:103B6000C0E9003383600D4639B1084602F090F990
:103B7000294602462046FFF7DDFF204638BD38B50E
:103B8000054608460C4602F083F9214602462846BF
:103B9000BDE83840FFF7CEBF10B504468AB0002319
:103BA000C4E90033A360084601A901F097FA204652
:103BB00001A9FFF7E4FF20460AB010BD10B5044686
:103BC0008AB00023C4E90033A360084601A900F0CD
:103BD000CCF8204601A9FFF7D2FF20460AB010BD5D
:103BE000884210B50B46044604D0096821B19A6892
:103BF000FFF7A0FF204610BDFFF771FFFAE710B5F1
:103C000000230446C0E900338360FFF7E9FF204644
:103C100010BD10B5044619B1FFF7B1FF204610BD25
:103C2000FFF75DFFFAE770B5044600208CB0C4E9E9
:103C30000000A060951C084616466DB200F072FBAD
:103C400003AB00932A46334600F03EF80146204677
:103C5000FFF7DFFF20460CB070BD70B505460E467D
:103C600009B9002070BD6AB1846814442146FFF789
:103C70004DFF0028F5D02868AB683146184402F0A3
:103C8000FFF8AC600120EDE710B58A6809680446CA
:103C9000FFF7E3FF10B92046FFF721FF204610BDD4
:103CA00038B504460D4621B92046FFF718FF2046D7
:103CB00038BD084602F0ECF8294602462046FFF7D8
:103CC000CCFF0028F0D0F2E730B5044687B00D46AF
:103CD000064901A802F0B4F822462B4601A90A9829
:103CE00002F0AEF80A9807B030BD00BF278100008F
:103CF0000A4B19680A4B30B5D3F804050C060D0AB7
:103D000044EA00024FF47A712B46A2FB014501FB05
:103D10000355E00B40EA454030BD00BFC00800201D
:103D20000010014038B5044648B1FFF7E1FF0546F1
:103D300000F01AF8FFF7DCFF401BA042F8D338BDB3
:103D4000074B0022C3F8042182B0D3F80431054A9E
:103D50000193019B13680133DBB2136002B070471B
:103D600000100140C0080020704770B58AB061B1F2
:103D7000931E222B20D801AB1D4648B9AB4207D079
:103D80000A46AB4213D80023137008460AB070BD30
:103D9000B0FBF2F402FB1406092E204603F10103E6
:103DA000F4B294BF3034573403F8014CE5E713F80C
:103DB000010D02F8010BE4E70021E6E701F094B9F8
:103DC00001F09AB92A4BE02283F811234FF4003214
:103DD000C3F880211A604FF080430122C3F81825F0
:103DE0009A6003F588330021C3F808150221C3F84F
:103DF0000413C3F844131A604FF01023D3F80022C1
:103E0000002A03DBD3F80432002B2FDA194B0122EE
:103E1000C3F80425D3F80024002AFBD04FF0102269
:103E20001521C2F80012D3F80024002AFBD04FF06D
:103E300010231522C3F804220E4B1A46D3F800149F
:103E40000029FBD00021C3F80415D2F80034002B60
:103E5000FBD0BFF34F8F0849084BCA6802F4E062F9
:103E60001343CB60BFF34F8F00BFFDE7704700BF28
:103E700000E100E000E0014000ED00E00400FA0590
:103E800019280FD8114B53F8203003290AD8DFE83E
:103E900001F002160A1003F5E0734FF0A042002172
:103EA00042F82310704703F5E0734FF0A0420C2155
:103EB000F6E703F5E0734FF0A0420421F0E703F5C5
:103EC000E0734FF0A0420321EAE700BF0880000042
:103ED00019280CD8064B53F82020012393404FF0AB
:103EE000A04211B9C2F80C357047C2F808357047C6
:103EF0000880000019289FBF4FF0A043054AD3F85F
:103F0000103552F820009ABF23FA00F000F00100AB
:103F1000002070470880000038B50025057329B9D6
:103F20000B4B0C4A0C48252101F042F801600B496B
:103F300051F82220027151F8233083719DF810301E
:103F400051F8233043710223C371856038BD00BF2F
:103F500030810000948100003E8100000880000054
:103F6000037B23B943738373036101230373704796
:103F700084B00DF1100C0CE90E009DF808100268D9
:103F800000230129C2F80035039B12D00BD303296B
:103F90000CD0C2F85435019BC2F824350123C2F875
:103FA000003504B0704743F00203F2E743F0040326
:103FB000EFE743F00603ECE710B5FFF7D1FF036826
:103FC0008279C3F808254279C3F80C250279C3F831
:103FD0001025034BBDE810400ECBFFF7C9BF00BF53
:103FE000D808002010B485B001AC84E80E0094E835
:103FF0000E0005B05DF8044BFFF7BABF70470368C9
:10400000C3F81C15D3F80821002AFBD0D3F81805F3
:104010000022C3F80821C0B27047000007B5094B61
:1040200009490A484FF080421A6000229A60022231
:104030001A710B2300930C220D23FFF76DFF03B0C1
:104040005DF804FBD808002000300240C4080020BE
:104050000B460146184600F0D1BF000081F0004138
:1040600002E000BF83F0004330B54FEA41044FEA5D
:10407000430594EA050F08BF90EA020F1FBF54EAF8
:10408000000C55EA020C7FEA645C7FEA655C00F094
:10409000E2804FEA5454D4EB5555B8BF6D420CDD65
:1040A0002C4480EA020281EA030382EA000083EAE8
:1040B000010180EA020281EA0303362D88BF30BD88
:1040C00011F0004F4FEA01314FF4801C4CEA1131DE
:1040D00002D0404261EB410113F0004F4FEA03333D
:1040E0004CEA133302D0524263EB430394EA050FC8
:1040F00000F0A780A4F10104D5F1200E0DDB02FA37
:104100000EFC22FA05F2801841F1000103FA0EF2CA
:10411000801843FA05F359410EE0A5F120050EF190
:10412000200E012A03FA0EFC28BF4CF0020C43FAC1
:1041300005F3C01851EBE37101F0004507D54FF0CE
:10414000000EDCF1000C7EEB00006EEB0101B1F51E
:10415000801F1BD3B1F5001F0CD349085FEA300064
:104160004FEA3C0C04F101044FEA445212F5800F6F
:1041700080F09A80BCF1004F08BF5FEA500C50F10C
:10418000000041EB045141EA050130BD5FEA4C0CEF
:10419000404141EB010111F4801FA4F10104E9D178
:1041A00091F0000F04BF01460020B1FA81F308BF6F
:1041B0002033A3F10B03B3F120020CDA0C3208DD3B
:1041C00002F1140CC2F10C0201FA0CF021FA02F116
:1041D0000CE002F11402D8BFC2F1200C01FA02F186
:1041E00020FA0CFCDCBF41EA0C019040E41AA2BFAB
:1041F00001EB0451294330BD6FEA04041F3C1CDA73
:104200000C340EDC04F11404C4F1200220FA04F092
:1042100001FA02F340EA030021FA04F345EA03013C
:1042200030BDC4F10C04C4F1200220FA02F001FAFE
:1042300004F340EA0300294630BD21FA04F0294680
:1042400030BD94F0000F83F4801306BF81F4801119
:104250000134013D4EE77FEA645C18BF7FEA655C8C
:1042600029D094EA050F08BF90EA020F05D054EA5E
:10427000000C04BF1946104630BD91EA030F1EBF63
:104280000021002030BD5FEA545C05D14000494167
:1042900028BF41F0004130BD14F580043CBF01F55A
:1042A000801130BD01F0004545F0FE4141F4700140
:1042B0004FF0000030BD7FEA645C1ABF194610461B
:1042C0007FEA655C1CBF0B46024650EA013406BF1C
:1042D00052EA033591EA030F41F4002130BD00BFDB
:1042E00090F0000F04BF0021704730B54FF4806498
:1042F00004F132044FF000054FF0000150E700BF19
:1043000090F0000F04BF0021704730B54FF4806477
:1043100004F1320410F0004548BF40424FF0000164
:104320003EE700BF42004FEAE2014FEA31014FEAA7
:1043300002701FBF12F07F4393F07F4F81F06051F6
:10434000704732F07F4208BF704793F07F4F04BF41
:1043500041F40021704730B54FF4607401F000451E
:1043600021F000411CE700BF50EA010208BF70477E
:1043700030B54FF000050AE050EA010208BF70476F
:1043800030B511F0004502D5404261EB41014FF4D8
:10439000806404F132045FEA915C3FF4D8AE4FF0E0
:1043A00003025FEADC0C18BF03325FEADC0C18BFC3
:1043B000033202EBDC02C2F1200300FA03FC20FA14
:1043C00002F001FA03FE40EA0E0021FA02F1144461
:1043D000BDE600BF70B54FF0FF0C4CF4E06C1CEA7A
:1043E00011541DBF1CEA135594EA0C0F95EA0C0FEB
:1043F00000F0DEF82C4481EA030621EA4C5123EA5E
:104400004C5350EA013518BF52EA033541F480118C
:1044100043F4801338D0A0FB02CE4FF00005E1FB3F
:1044200002E506F00042E0FB03E54FF00006E1FB89
:1044300003569CF0000F18BF4EF0010EA4F1FF04CC
:10444000B6F5007F64F5407404D25FEA4E0E6D410C
:1044500046EB060642EAC62141EA55514FEAC5201D
:1044600040EA5E504FEACE2EB4F1FD0C88BFBCF599
:10447000E06F1ED8BEF1004F08BF5FEA500E50F14A
:10448000000041EB045170BD06F0004646EA010110
:1044900040EA020081EA0301B4EB5C04C2BFD4EB42
:1044A0000C0541EA045170BD41F480114FF0000E3B
:1044B000013C00F3AB8014F1360FDEBF002001F0A9
:1044C000004170BDC4F10004203C35DA0C341BDC23
:1044D00004F11404C4F1200500FA05F320FA04F0F5
:1044E00001FA05F240EA020001F0004221F0004129
:1044F00010EBD37021FA04F642EB06015EEA430E9C
:1045000008BF20EAD37070BDC4F10C04C4F12005CB
:1045100000FA04F320FA05F001FA04F240EA02007E
:1045200001F0004110EBD37041F100015EEA430E4F
:1045300008BF20EAD37070BDC4F1200500FA05F26F
:104540004EEA020E20FA04F301FA05F243EA0203EE
:1045500021FA04F001F0004121FA04F220EA0200FD
:1045600000EBD3705EEA430E08BF20EAD37070BD43
:1045700094F0000F0FD101F00046400041EB010123
:1045800011F4801F08BF013CF7D041EA060195F005
:10459000000F18BF704703F00046520043EB0303BF
:1045A00013F4801F08BF013DF7D043EA06037047AC
:1045B00094EA0C0F0CEA135518BF95EA0C0F0CD0B7
:1045C00050EA410618BF52EA4306D1D181EA0301FD
:1045D00001F000414FF0000070BD50EA410606BFF7
:1045E0001046194652EA430619D094EA0C0F02D13C
:1045F00050EA013613D195EA0C0F05D152EA033681
:104600001CBF104619460AD181EA030101F000419E
:1046100041F0FE4141F470014FF0000070BD41F0E7
:10462000FE4141F4780170BD70B54FF0FF0C4CF4C1
:10463000E06C1CEA11541DBF1CEA135594EA0C0FE0
:1046400095EA0C0F00F0A7F8A4EB050481EA030E2D
:1046500052EA03354FEA013100F088804FEA033314
:104660004FF0805545EA131343EA12634FEA0222E2
:1046700045EA111545EA10654FEA00260EF00041A3
:104680009D4208BF964244F1FD0404F5407402D2F5
:104690005B084FEA3202B61A65EB03055B084FEA86
:1046A00032024FF480104FF4002CB6EB020E75EB83
:1046B000030E22BFB61A754640EA0C005B084FEAAB
:1046C0003202B6EB020E75EB030E22BFB61A754628
:1046D00040EA5C005B084FEA3202B6EB020E75EB73
:1046E000030E22BFB61A754640EA9C005B084FEAEB
:1046F0003202B6EB020E75EB030E22BFB61A7546F8
:1047000040EADC0055EA060E18D04FEA051545EAE6
:1047100016754FEA06164FEAC30343EA52734FEA8F
:10472000C2025FEA1C1CC0D111F4801F0BD141EA08
:1047300000014FF000004FF0004CB6E711F4801F6D
:1047400004BF01430020B4F1FD0C88BFBCF5E06F4D
:104750003FF6AFAEB5EB030C04BFB6EB020C5FEA5D
:10476000500C50F1000041EB045170BD0EF0004EB2
:104770004EEA113114EB5C04C2BFD4EB0C0541EAE4
:10478000045170BD41F480114FF0000E013C90E6E1
:1047900045EA060E8DE60CEA135594EA0C0F08BFA5
:1047A00095EA0C0F3FF43BAF94EA0C0F0AD150EAA4
:1047B00001347FF434AF95EA0C0F7FF425AF104637
:1047C00019462CE795EA0C0F06D152EA03353FF45F
:1047D000FDAE1046194622E750EA410618BF52EADC
:1047E00043067FF4C5AE50EA41047FF40DAF52EAB0
:1047F00043057FF4EBAE12E74FF0FF3C06E000BF4D
:104800004FF0010C02E000BF4FF0010C4DF804CD59
:104810004FEA410C7FEA6C5C4FEA430C18BF7FEA19
:104820006C5C1BD001B050EA410C0CBF52EA430C47
:1048300091EA030F02BF90EA020F0020704710F1C7
:10484000000F91EA030F58BF994208BF90422CBF56
:10485000D8176FEAE37040F0010070474FEA410C4F
:104860007FEA6C5C02D150EA013C07D14FEA430C6D
:104870007FEA6C5CD6D152EA033CD3D05DF8040BDE
:10488000704700BF8446104662468C461946634610
:1048900000E000BF01B5FFF7B7FF002848BF10F1E7
:1048A000000F01BD4DF808EDFFF7F4FF0CBF01202C
:1048B00000205DF808FB00BF4DF808EDFFF7EAFFA8
:1048C00034BF012000205DF808FB00BF4DF808ED63
:1048D000FFF7E0FF94BF012000205DF808FB00BF58
:1048E0004DF808EDFFF7CEFF94BF012000205DF8E2
:1048F00008FB00BF4DF808EDFFF7C4FF34BF0120EF
:1049000000205DF808FB00BF4FEA410C7FEA6C5CB9
:1049100002D150EA013C0AD14FEA430C7FEA6C5CB9
:1049200002D152EA033C02D14FF0000070474FF031
:10493000010070474FEA410212F5001215D211D55D
:104940006FF47873B3EB625212D94FEAC12343F08C
:10495000004343EA505311F0004F23FA02F018BF0E
:10496000404270474FF00000704750EA013005D1D7
:1049700011F0004008BF6FF0004070474FF000009A
:10498000704700BF4FEA4102B2F1E04324BFB3F5E4
:10499000001CDCF1FE5C0DD901F0004C4FEAC002B6
:1049A0004CEA5070B2F1004F40EB830008BF20F09A
:1049B0000100704711F0804F21D113F13872BCBF54
:1049C00001F00040704741F480114FEA5252C2F1A9
:1049D0001802C2F1200C10FA0CF320FA02F018BFF2
:1049E00040F001004FEAC1234FEAD32303FA0CFC45
:1049F00040EA0C0023FA02F34FEA4303CCE77FEAD4
:104A0000625307D150EA01331EBF4FF0FE4040F41D
:104A10004000704701F0004040F0FE4040F40000CC
:104A2000704700BF80F0004002E000BF81F000410D
:104A300042001FBF5FEA410392EA030F7FEA226C44
:104A40007FEA236C6AD04FEA1262D2EB1363C1BFD4
:104A5000D218414048404140B8BF5B42192B88BF43
:104A6000704710F0004F40F4000020F07F4018BF66
:104A7000404211F0004F41F4000121F07F4118BF86
:104A8000494292EA030F3FD0A2F1010241FA03FC2E
:104A900010EB0C00C3F1200301FA03F100F0004316
:104AA00002D5494260EB4000B0F5000F13D3B0F1DE
:104AB000807F06D340084FEA310102F10102FE2A4D
:104AC00051D2B1F1004F40EBC25008BF20F00100BD
:104AD00040EA03007047490040EB000010F4000F6B
:104AE000A2F10102EDD1B0FA80FCACF1080CB2EBFE
:104AF0000C0200FA0CF0AABF00EBC250524218435D
:104B0000BCBFD0401843704792F0000F81F4000101
:104B100006BF80F400000132013BB5E74FEA4103D4
:104B20007FEA226C18BF7FEA236C21D092EA030F40
:104B300004D092F0000F08BF0846704790EA010FBA
:104B40001CBF0020704712F07F4F04D1400028BFE7
:104B500040F00040704712F100723CBF00F50000C9
:104B6000704700F0004343F0FE4040F400007047FF
:104B70007FEA226216BF08467FEA236301464202AB
:104B800006BF5FEA412390EA010F40F480007047BE
:104B90004FF0000304E000BF10F0004348BF404264
:104BA0005FEA000C08BF704743F0964301464FF0A0
:104BB00000001CE050EA010208BF70474FF00003FC
:104BC0000AE000BF50EA010208BF704711F000433D
:104BD00002D5404261EB41015FEA010C02BF84460D
:104BE0000146002043F0B64308BFA3F18053A3F56C
:104BF0000003BCFA8CF2083AA3EBC25310DB01FAB3
:104C000002FC634400FA02FCC2F12002BCF1004F36
:104C100020FA02F243EB020008BF20F001007047C7
:104C200002F1200201FA02FCC2F1200250EA4C001B
:104C300021FA02F243EB020008BF20EADC70704761
:104C40007BB972B90029BEBF00204FF0004106E0D9
:104C500008BF00281CBF6FF000414FF0FF3000F08C
:104C6000A5B9ADF1080C6DE904CE002909DB002BD4
:104C70001ADB00F035F8DDF804E0DDE9022304B0CA
:104C80007047404261EB4101002B1BDB00F028F82C
:104C9000DDF804E0DDE9022304B0404261EB4101AC
:104CA000524263EB43037047524263EB430300F00D
:104CB00017F8DDF804E0DDE9022304B0404261EBBF
:104CC00041017047524263EB430300F009F8DDF8FD
:104CD00004E0DDE9022304B0524263EB4303704772
:104CE0002DE9F047089E04468846002B4BD18A42A6
:104CF000154667D9B2FA82F24AB1C2F1200701FA29
:104D000002F320FA07F7954047EA030894404FEA78
:104D1000154E230CB8FBFEF71FFA85FC0EFB178817
:104D200043EA084307FB0CF1994209D9EB1807F154
:104D3000FF3080F01B81994240F21881023F2B44E2
:104D40005B1AA4B2B3FBFEF00EFB103344EA03443B
:104D500000FB0CFCA44509D92C1900F1FF3380F0AD
:104D60000781A44540F2048102382C4440EA074000
:104D7000A4EB0C0400271EB1D4400023C6E9004375
:104D80003946BDE8F0878B4209D9002E00F0EB8050
:104D90000027C6E9000138463946BDE8F087B3FA76
:104DA00083F7002F47D18B4202D3824200F2FA8070
:104DB000841A61EB030301209846002EE0D0C6E977
:104DC0000048DDE702B9FFDEB2FA82F2002A40F0C5
:104DD0008F80491B4FEA154E1FFA85F80127B1FB5A
:104DE000FEFC230C0EFB1C1143EA014308FB0CF1F3
:104DF000994207D9EB180CF1FF3002D2994200F228
:104E0000CD808446591AA3B2B1FBFEF00EFB1014FC
:104E100043EA044408FB00F8A04507D92C1900F127
:104E2000FF3302D2A04500F2B6801846A4EB080476
:104E300040EA0C409FE7C7F1200CBB4022FA0CFE71
:104E40004EEA030E01FA07F420FA0CF521FA0CF3EE
:104E50004FEA1E482543B3FBF8F92C0C08FB193325
:104E60001FFA8EFA44EA034309FB0AF49C4202FA51
:104E700007F200FA07F10BD91EEB030309F1FF302B
:104E800080F087809C4240F28480A9F1020973443B
:104E90001B1BADB2B3FBF8F008FB103345EA03442B
:104EA00000FB0AFAA24508D91EEB040400F1FF3307
:104EB0006BD2A24569D90238744440EA0940A0FB8C
:104EC0000289A4EB0A044C45C2464B4654D351D048
:104ED000002E69D0B1EB0A0564EB030404FA0CFC64
:104EE000FD40FC404CEA0505C6E90054002747E7B1
:104EF000C2F1200320FA03F7954001FA02F021FAEB
:104F000003F34FEA154E3843010CB3FBFEF71FFACB
:104F100085F80EFB173341EA034107FB08F38B4288
:104F200004FA02F407D9691807F1FF3C2FD28B422B
:104F30002DD9023F2944CB1A81B2B3FBFEF00EFB00
:104F4000103341EA034100FB08F38B4207D969188B
:104F500000F1FF3C17D28B4215D902382944C91AF7
:104F600040EA07473BE73746304609E70746E7E6AA
:104F70001846FBE64145ABD2B8EB020A69EB0E02DC
:104F800001381346A4E76046E9E7184695E7674607
:104F9000D1E781467CE702382C4447E7ACF1020CAC
:104FA0002B442FE7384608E73746E9E6704700BF4D
:104FB0001FB51C46094B1B680546D86852B1084B03
:104FC0000091CDE9013207492B46224600F038F81E
:104FD00001F018F9044B1A46F2E700BF4800002020
:104FE000D1810000DE8100001E8100000A22002124
:104FF00000F0E6BF0A22002100F0E2BF10B5054C28
:1050000013462CB10A4601460220AFF3008010BDC2
:105010002046FCE70000000008B5074B044613B12A
:105020000021AFF30080054B1868836A03B19847ED
:10503000204602F025FF00BF0000000010820000A3
:105040000EB403B5014603AB054853F8042B0068C2
:10505000019300F069F902B05DF804EB03B070470A
:105060004800002070B50D4E0D4CA41BA410002567
:10507000A54209D10B4E0C4C02F004FFA41BA41056
:105080000025A54205D170BD56F825309847013559
:10509000EEE756F8253098470135F2E71802002070
:1050A00018020020180200202C020020931E222B40
:1050B00010B50C4604D900230B701C46204610BDC9
:1050C0000A2A09D1002807DA2D230B70404201215A
:1050D000214400F08BFFF1E70021F9E7FFF7E6BF7D
:1050E000D0F8EC0070470000024B0146186800F051
:1050F00097B800BF48000020024B0146186800F036
:1051000041B800BF4800002082B001B901A942B1F6
:105110004BB113780B601278101C18BF012002B03D
:1051200070471046FBE76FF00100F8E710B5431E2B
:105130000A44914200D110BD11F8014B03F8014F10
:10514000F7E7884210B501EB020307D8421E9942E7
:105150000AD011F8014B02F8014FF8E78342F5D964
:105160008118D21AD34200D110BD13F8014D01F8B5
:10517000014DF7E702440346934200D1704703F81C
:10518000011BF9E738B50546002945D051F8043C24
:105190000C1F002BB8BFE41802F0CAF81F4A1368AE
:1051A000104633B9636014602846BDE8384002F009
:1051B000C0B8A3420CD921686218934204BF1A6890
:1051C0005B68636004BF521822600460ECE713461A
:1051D0005A680AB1A242FAD919685818A0420BD1EC
:1051E00020680144581882421960DDD11068526865
:1051F0005A6001441960D7E702D90C232B60D3E72A
:10520000206821188A4204BF11685268626004BF96
:10521000091821605C60C7E738BD00BFE4080020C2
:1052200070B5CD1C25F0030508350C2D38BF0C25B5
:10523000002D064601DBA94203D90C233360002070
:1052400070BD02F075F8214A1468214691B9204CCE
:1052500023681BB9304600F0E3FD20602946304644
:1052600000F0DEFD431C24D10C233360304602F0F5
:1052700060F8E4E70B685B1B18D40B2B0FD90B60AD
:10528000CD50CC18304602F054F804F10B00231D29
:1052900020F00700C31AD3D05A42E250D0E78C4224
:1052A0004B6816BF636013600C46EBE70C46496819
:1052B000CCE7C41C24F00304A04205D0211A3046D8
:1052C00000F0AEFD0130CFD02560DBE7E408002020
:1052D000E80800209368013B002B10B4936008DAC3
:1052E0009469A34201DB0A2903D15DF8044B00F065
:1052F000BBBE1368581C1060197008465DF8044B5B
:105300007047F8B506460F461446D518AC4201D191
:10531000002007E03A4614F8011B3046FFF7DAFF99
:10532000431CF3D1F8BD00002DE9F04F9DB00C46B1
:1053300017460393064618B183690BB901F0A6FE20
:105340007B4B9C4257D17468A38918075DD52369AC
:10535000002B5AD00023099320238DF829303023C5
:105360008DF82A304FF0010BB846454615F8013B41
:105370000BB1252B54D1B8EB070A0BD053463A4654
:1053800021463046FFF7BDFF013000F0C280099B87
:105390005344099398F80030002B00F0BA800023A2
:1053A0004FF0FF32CDE90523049307938DF8533076
:1053B0001A93A846052218F8011B5E4801F068FF01
:1053C000049B78BBD90644BF20228DF853201A07CE
:1053D00044BF2B228DF853202A782A2A2AD0079AF4
:1053E000A84600200A25414611F8013B303B092B15
:1053F00069D960B324E0504B9C4201D1B468A3E763
:105400004E4B9C4208BFF4689EE72146304600F0B0
:105410008BFE00289ED04FF0FF301DB0BDE8F08F0E
:10542000A846A2E7434A801A0BFA00F018430490FA
:105430004546BEE7039A111D12680391002A01DB5D
:10544000079204E0524243F002030792049398F853
:1054500000302E2B0ED198F801302A2B38D1039B27
:105460001A1D1B680392002BB8BF4FF0FF3308F1E1
:1054700002080593324D98F800100322284601F0E7
:1054800007FF40B14023401B03FA00F0049B034395
:1054900008F10108049398F800102A488DF82810A4
:1054A000062208F1010701F0F3FE002837D0264B51
:1054B0001BBB039B073323F0070308330393099BAC
:1054C0004B44099350E705FB0232012088468AE7E6
:1054D000002308F10108059319460A25404610F8F3
:1054E000012B303A092A03D9002BC3D00591C1E71B
:1054F00005FB012101238046F0E703AB0093224620
:10550000124B04A9304600F0B5F8B0F1FF3F8146D8
:10551000D5D1A3895B063FF57EAF09987DE703AB44
:1055200000932246094B04A9304600F05FFBECE7EC
:10553000B48300001E820000D48300009483000026
:1055400024820000288200007556000003530000EA
:105550002DE9F04788B0002B149F109EDDE9121A48
:105560001D4627F02007BBBF03F100431D46002363
:105570002D231446B8BF1446462F0B7004D0452F78
:1055800000D10136022300E0032307AA049206AAF1
:10559000CDE902A2CDE9003622462B4600F0C8FE36
:1055A000472F804602D1119BDB0726D5462F08EBFB
:1055B000060911D198F80030302B0AD100220023BF
:1055C00020462946FFF76EF918B9C6F10106CAF858
:1055D0000060DAF800309944002200232046294672
:1055E000FFF760F938B93022079B4B4505D2591CAB
:1055F00007911A70F8E7CDF81C90079B159AA3EB5A
:1056000008034046136008B0BDE8F087F7B50029ED
:105610000446BABF49422D232B23092904F8022B43
:10562000437020DD0DF107031F460A2691FBF6F5B6
:1056300006FB15113031092D03F8011C03F1FF326F
:10564000294609DC3031023B02F8011CBB422246EC
:1056500004D3101A03B0F0BD1346E7E713F8012B8B
:1056600004F8012BF2E7302319448370021DC17046
:10567000EFE700002DE9F04F91B00C46DDF86880AF
:1056800016461F46054601F08BFD03680893184631
:1056900000F0FEFB00230E93D8F80030099007338A
:1056A00023F0070303F1080294F818A0D4F800B01F
:1056B000C8F80020D3E90023C4E91223D4E91289F1
:1056C00029F000430B93CDF828804FF0FF32A94B0F
:1056D000DDE90A01FFF718F970BB4FF0FF32A54B67
:1056E000DDE90A01FFF7F2F830BB00220023404653
:1056F0004946FFF7E1F810B12D2384F843309E4A64
:105700009E4BBAF1470F8CBF904698460323236106
:105710002BF0040323604FF00009009733460FAAD3
:105720002146284600F0ECF9013040F090804FF01F
:10573000FF3011B0BDE8F08F42464B464046494627
:10574000FFF7E2F810B18E4A8E4BDAE76368591C16
:105750004BF480620EA90DA840D1062363600DF1C1
:105760003303CDE901234FF0000C63682260CDE9DB
:10577000030A009342464B46CDE9051C2846FFF735
:10578000E7FE0AF0DF03472B804609D10D9BD81CAA
:1057900002DB6268934247DDAAF1020A5FFA8AFAE5
:1057A000BAF1650F0D9924D80139524604F1500021
:1057B0000D91FFF72BFF0E9A1318012A81462361E2
:1057C00002DC2268D10701D5013323619DF8333013
:1057D000002BA2D02D2384F843309EE7BAF1670F47
:1057E00000F07881BAF1470FB9D1002BB7D101236E
:1057F000B4E7BAF1660F19D1002963680CDD2161A5
:1058000013B92268D20702D501330B4423610D9BE3
:10581000A3654FF00009D9E713B92268D00701D575
:105820000233F3E70123F1E74FF0670ADDE90D32B8
:10583000934205DB22682361D107E8D50133E5E710
:10584000002BD4BFC3F1020301231344DEE7236816
:105850005A0507D42369424631462846B8470130E5
:105860002BD164E7BAF1650F40F2DD8000220023FE
:10587000D4E91201FFF716F8002833D00123424A79
:1058800031462846B84701303FF451AFDDE90D23DA
:105890009A4202DB2368D8070FD5DDE90823314699
:1058A0002846B84701303FF442AF4FF0000804F1FA
:1058B0001A090E9B013B434509DC23689B0700F155
:1058C0000481E0680F9B9842B8BF184631E7012376
:1058D0004A4631462846B84701303FF428AF08F120
:1058E0000108E6E70D9B002B2BDC0123264A3146FD
:1058F0002846B84701303FF41AAF0D9B23B90E9BE1
:1059000013B92368D907D8D5DDE9082331462846DD
:10591000B84701303FF40BAF4FF0000904F11A0A09
:105920000D9B5B424B4501DC0E9B94E701235246E5
:1059300031462846B84701303FF4F9AE09F1010974
:10594000EEE70E9AA36D9A42A8BF1A46002A914626
:1059500007DD1346314642462846B84701303FF43A
:10596000E6AE04F11A034FF0000B29EAE9790A9335
:1059700016E000BFFFFFEF7F338200002F820000A0
:105980003B82000037820000C580000001230A9A94
:1059900031462846B84701303FF4C9AE0BF1010B40
:1059A000D4F858A0AAEB09035B45EFDCDDE90D2331
:1059B0009A42D04415DB2368DA0712D40E9B0D9966
:1059C000A3EB0A02A3EB010A9245A8BF9246BAF1E3
:1059D000000F0EDC4FF000082AEAEA7A04F11A09F7
:1059E00019E0DDE9082331462846B8470130E5D102
:1059F0009DE65346424631462846B8470130E9D134
:105A000095E601234A4631462846B84701303FF41F
:105A10008EAE08F10108DDE90D239B1AA3EB0A0302
:105A20004345EEDC49E70E9A012A01DCDB073AD553
:105A30000123424631462846B84701303FF477AE4D
:105A4000DDE9082331462846B847013008F101084E
:105A50003FF46DAE0E9B002203F1FF3AD4E9120130
:105A60000023FEF71FFFC8B9534642463146284679
:105A7000B84701300ED15AE6012352463146284636
:105A8000B84701303FF453AE08F101080E9B013BCB
:105A90004345F1DC4B4604F15002DDE64FF00008CF
:105AA00004F11A0AF2E70123DFE701234A463146EF
:105AB0002846B84701303FF43AAE08F10108E368E0
:105AC0000F9A9B1A4345F0DCFBE64FF0000804F107
:105AD0001909F4E7002B3FF48AAE4FF0000CCDE932
